{
  "_format": "hh-sol-artifact-1",
  "contractName": "VoteBlock",
  "sourceName": "contracts/VoteBlock.sol",
  "abi": [
    {
      "inputs": [],
      "stateMutability": "nonpayable",
      "type": "constructor"
    },
    {
      "anonymous": false,
      "inputs": [
        {
          "indexed": false,
          "internalType": "string",
          "name": "name",
          "type": "string"
        },
        {
          "indexed": false,
          "internalType": "string",
          "name": "party",
          "type": "string"
        }
      ],
      "name": "CandidateAdded",
      "type": "event"
    },
    {
      "anonymous": false,
      "inputs": [
        {
          "indexed": false,
          "internalType": "string",
          "name": "userId",
          "type": "string"
        }
      ],
      "name": "VoteCasted",
      "type": "event"
    },
    {
      "inputs": [
        {
          "internalType": "string",
          "name": "_name",
          "type": "string"
        },
        {
          "internalType": "string",
          "name": "_party",
          "type": "string"
        }
      ],
      "name": "addCandidate",
      "outputs": [],
      "stateMutability": "nonpayable",
      "type": "function"
    },
    {
      "inputs": [],
      "name": "admin",
      "outputs": [
        {
          "internalType": "address",
          "name": "",
          "type": "address"
        }
      ],
      "stateMutability": "view",
      "type": "function"
    },
    {
      "inputs": [
        {
          "internalType": "uint256",
          "name": "",
          "type": "uint256"
        }
      ],
      "name": "candidates",
      "outputs": [
        {
          "internalType": "string",
          "name": "name",
          "type": "string"
        },
        {
          "internalType": "string",
          "name": "party",
          "type": "string"
        },
        {
          "internalType": "uint256",
          "name": "voteCount",
          "type": "uint256"
        }
      ],
      "stateMutability": "view",
      "type": "function"
    },
    {
      "inputs": [
        {
          "internalType": "uint256",
          "name": "_candidateIndex",
          "type": "uint256"
        }
      ],
      "name": "getCandidateVotes",
      "outputs": [
        {
          "internalType": "uint256",
          "name": "",
          "type": "uint256"
        }
      ],
      "stateMutability": "view",
      "type": "function"
    },
    {
      "inputs": [],
      "name": "getCandidates",
      "outputs": [
        {
          "components": [
            {
              "internalType": "string",
              "name": "name",
              "type": "string"
            },
            {
              "internalType": "string",
              "name": "party",
              "type": "string"
            },
            {
              "internalType": "uint256",
              "name": "voteCount",
              "type": "uint256"
            }
          ],
          "internalType": "struct VoteBlock.Candidate[]",
          "name": "",
          "type": "tuple[]"
        }
      ],
      "stateMutability": "view",
      "type": "function"
    },
    {
      "inputs": [
        {
          "internalType": "string",
          "name": "_userId",
          "type": "string"
        },
        {
          "internalType": "string",
          "name": "_name",
          "type": "string"
        }
      ],
      "name": "vote",
      "outputs": [],
      "stateMutability": "nonpayable",
      "type": "function"
    },
    {
      "inputs": [
        {
          "internalType": "string",
          "name": "",
          "type": "string"
        }
      ],
      "name": "voters",
      "outputs": [
        {
          "internalType": "bool",
          "name": "hasVoted",
          "type": "bool"
        }
      ],
      "stateMutability": "view",
      "type": "function"
    }
  ],
  "bytecode": "0x6080604052348015600f57600080fd5b50336000806101000a81548173ffffffffffffffffffffffffffffffffffffffff021916908373ffffffffffffffffffffffffffffffffffffffff1602179055506114348061005f6000396000f3fe608060405234801561001057600080fd5b506004361061007d5760003560e01c806353fa2e641161005b57806353fa2e64146100ee578063866163c01461011e578063e8d5940d1461014e578063f851a4401461016a5761007d565b806306a49fce1461008257806326541b56146100a05780633477ee2e146100bc575b600080fd5b61008a610188565b60405161009791906109fa565b60405180910390f35b6100ba60048036038101906100b59190610b65565b610315565b005b6100d660048036038101906100d19190610c09565b61045f565b6040516100e593929190610c8f565b60405180910390f35b61010860048036038101906101039190610cd4565b6105a9565b6040516101159190610d38565b60405180910390f35b61013860048036038101906101339190610c09565b6105ea565b6040516101459190610d53565b60405180910390f35b61016860048036038101906101639190610b65565b610660565b005b610172610814565b60405161017f9190610daf565b60405180910390f35b60606002805480602002602001604051908101604052809291908181526020016000905b8282101561030c57838290600052602060002090600302016040518060600160405290816000820180546101df90610df9565b80601f016020809104026020016040519081016040528092919081815260200182805461020b90610df9565b80156102585780601f1061022d57610100808354040283529160200191610258565b820191906000526020600020905b81548152906001019060200180831161023b57829003601f168201915b5050505050815260200160018201805461027190610df9565b80601f016020809104026020016040519081016040528092919081815260200182805461029d90610df9565b80156102ea5780601f106102bf576101008083540402835291602001916102ea565b820191906000526020600020905b8154815290600101906020018083116102cd57829003601f168201915b50505050508152602001600282015481525050815260200190600101906101ac565b50505050905090565b60008054906101000a900473ffffffffffffffffffffffffffffffffffffffff1673ffffffffffffffffffffffffffffffffffffffff163373ffffffffffffffffffffffffffffffffffffffff16146103a3576040517f08c379a000000000000000000000000000000000000000000000000000000000815260040161039a90610e9c565b60405180910390fd5b600260405180606001604052808481526020018381526020016000815250908060018154018082558091505060019003906000526020600020906003020160009091909190915060008201518160000190816103ff9190611068565b5060208201518160010190816104159190611068565b506040820151816002015550507f6184463fde61a3e60869da6c5a223163f4b7548f805e17f865da2e8d3828d337828260405161045392919061113a565b60405180910390a15050565b6002818154811061046f57600080fd5b906000526020600020906003020160009150905080600001805461049290610df9565b80601f01602080910402602001604051908101604052809291908181526020018280546104be90610df9565b801561050b5780601f106104e05761010080835404028352916020019161050b565b820191906000526020600020905b8154815290600101906020018083116104ee57829003601f168201915b50505050509080600101805461052090610df9565b80601f016020809104026020016040519081016040528092919081815260200182805461054c90610df9565b80156105995780601f1061056e57610100808354040283529160200191610599565b820191906000526020600020905b81548152906001019060200180831161057c57829003601f168201915b5050505050908060020154905083565b6001818051602081018201805184825260208301602085012081835280955050505050506000915090508060000160009054906101000a900460ff16905081565b60006002805490508210610633576040517f08c379a000000000000000000000000000000000000000000000000000000000815260040161062a906111bd565b60405180910390fd5b60028281548110610647576106466111dd565b5b9060005260206000209060030201600201549050919050565b6001826040516106709190611248565b908152602001604051809103902060000160009054906101000a900460ff16156106cf576040517f08c379a00000000000000000000000000000000000000000000000000000000081526004016106c6906112ab565b60405180910390fd5b600180836040516106e09190611248565b908152602001604051809103902060000160006101000a81548160ff02191690831515021790555060005b6002805490508110156107d857816040516020016107299190611248565b6040516020818303038152906040528051906020012060028281548110610753576107526111dd565b5b9060005260206000209060030201600001604051602001610774919061134e565b60405160208183030381529060405280519060200120036107cb57600281815481106107a3576107a26111dd565b5b906000526020600020906003020160020160008154809291906107c590611394565b91905055505b808060010191505061070b565b507fcd63cc839e5f0f85c27f29e02b4e7d4e695820f9600a1cd819c990d39762e8528260405161080891906113dc565b60405180910390a15050565b60008054906101000a900473ffffffffffffffffffffffffffffffffffffffff1681565b600081519050919050565b600082825260208201905092915050565b6000819050602082019050919050565b600081519050919050565b600082825260208201905092915050565b60005b8381101561089e578082015181840152602081019050610883565b60008484015250505050565b6000601f19601f8301169050919050565b60006108c682610864565b6108d0818561086f565b93506108e0818560208601610880565b6108e9816108aa565b840191505092915050565b6000819050919050565b610907816108f4565b82525050565b6000606083016000830151848203600086015261092a82826108bb565b9150506020830151848203602086015261094482826108bb565b915050604083015161095960408601826108fe565b508091505092915050565b6000610970838361090d565b905092915050565b6000602082019050919050565b600061099082610838565b61099a8185610843565b9350836020820285016109ac85610854565b8060005b858110156109e857848403895281516109c98582610964565b94506109d483610978565b925060208a019950506001810190506109b0565b50829750879550505050505092915050565b60006020820190508181036000830152610a148184610985565b905092915050565b6000604051905090565b600080fd5b600080fd5b600080fd5b600080fd5b7f4e487b7100000000000000000000000000000000000000000000000000000000600052604160045260246000fd5b610a72826108aa565b810181811067ffffffffffffffff82111715610a9157610a90610a3a565b5b80604052505050565b6000610aa4610a1c565b9050610ab08282610a69565b919050565b600067ffffffffffffffff821115610ad057610acf610a3a565b5b610ad9826108aa565b9050602081019050919050565b82818337600083830152505050565b6000610b08610b0384610ab5565b610a9a565b905082815260208101848484011115610b2457610b23610a35565b5b610b2f848285610ae6565b509392505050565b600082601f830112610b4c57610b4b610a30565b5b8135610b5c848260208601610af5565b91505092915050565b60008060408385031215610b7c57610b7b610a26565b5b600083013567ffffffffffffffff811115610b9a57610b99610a2b565b5b610ba685828601610b37565b925050602083013567ffffffffffffffff811115610bc757610bc6610a2b565b5b610bd385828601610b37565b9150509250929050565b610be6816108f4565b8114610bf157600080fd5b50565b600081359050610c0381610bdd565b92915050565b600060208284031215610c1f57610c1e610a26565b5b6000610c2d84828501610bf4565b91505092915050565b600082825260208201905092915050565b6000610c5282610864565b610c5c8185610c36565b9350610c6c818560208601610880565b610c75816108aa565b840191505092915050565b610c89816108f4565b82525050565b60006060820190508181036000830152610ca98186610c47565b90508181036020830152610cbd8185610c47565b9050610ccc6040830184610c80565b949350505050565b600060208284031215610cea57610ce9610a26565b5b600082013567ffffffffffffffff811115610d0857610d07610a2b565b5b610d1484828501610b37565b91505092915050565b60008115159050919050565b610d3281610d1d565b82525050565b6000602082019050610d4d6000830184610d29565b92915050565b6000602082019050610d686000830184610c80565b92915050565b600073ffffffffffffffffffffffffffffffffffffffff82169050919050565b6000610d9982610d6e565b9050919050565b610da981610d8e565b82525050565b6000602082019050610dc46000830184610da0565b92915050565b7f4e487b7100000000000000000000000000000000000000000000000000000000600052602260045260246000fd5b60006002820490506001821680610e1157607f821691505b602082108103610e2457610e23610dca565b5b50919050565b7f4f6e6c792061646d696e2063616e20706572666f726d2074686973206163746960008201527f6f6e000000000000000000000000000000000000000000000000000000000000602082015250565b6000610e86602283610c36565b9150610e9182610e2a565b604082019050919050565b60006020820190508181036000830152610eb581610e79565b9050919050565b60008190508160005260206000209050919050565b60006020601f8301049050919050565b600082821b905092915050565b600060088302610f1e7fffffffffffffffffffffffffffffffffffffffffffffffffffffffffffffffff82610ee1565b610f288683610ee1565b95508019841693508086168417925050509392505050565b6000819050919050565b6000610f65610f60610f5b846108f4565b610f40565b6108f4565b9050919050565b6000819050919050565b610f7f83610f4a565b610f93610f8b82610f6c565b848454610eee565b825550505050565b600090565b610fa8610f9b565b610fb3818484610f76565b505050565b5b81811015610fd757610fcc600082610fa0565b600181019050610fb9565b5050565b601f82111561101c57610fed81610ebc565b610ff684610ed1565b81016020851015611005578190505b61101961101185610ed1565b830182610fb8565b50505b505050565b600082821c905092915050565b600061103f60001984600802611021565b1980831691505092915050565b6000611058838361102e565b9150826002028217905092915050565b61107182610864565b67ffffffffffffffff81111561108a57611089610a3a565b5b6110948254610df9565b61109f828285610fdb565b600060209050601f8311600181146110d257600084156110c0578287015190505b6110ca858261104c565b865550611132565b601f1984166110e086610ebc565b60005b82811015611108578489015182556001820191506020850194506020810190506110e3565b868310156111255784890151611121601f89168261102e565b8355505b6001600288020188555050505b505050505050565b600060408201905081810360008301526111548185610c47565b905081810360208301526111688184610c47565b90509392505050565b7f496e76616c69642063616e646964617465210000000000000000000000000000600082015250565b60006111a7601283610c36565b91506111b282611171565b602082019050919050565b600060208201905081810360008301526111d68161119a565b9050919050565b7f4e487b7100000000000000000000000000000000000000000000000000000000600052603260045260246000fd5b600081905092915050565b600061122282610864565b61122c818561120c565b935061123c818560208601610880565b80840191505092915050565b60006112548284611217565b915081905092915050565b7f416c726561647920766f74656421000000000000000000000000000000000000600082015250565b6000611295600e83610c36565b91506112a08261125f565b602082019050919050565b600060208201905081810360008301526112c481611288565b9050919050565b600081546112d881610df9565b6112e2818661120c565b945060018216600081146112fd576001811461131257611345565b60ff1983168652811515820286019350611345565b61131b85610ebc565b60005b8381101561133d5781548189015260018201915060208101905061131e565b838801955050505b50505092915050565b600061135a82846112cb565b915081905092915050565b7f4e487b7100000000000000000000000000000000000000000000000000000000600052601160045260246000fd5b600061139f826108f4565b91507fffffffffffffffffffffffffffffffffffffffffffffffffffffffffffffffff82036113d1576113d0611365565b5b600182019050919050565b600060208201905081810360008301526113f68184610c47565b90509291505056fea26469706673582212201d0d2c10480c4a2bf63aeb24ed3a664142ca019d1c43925702a006113053d2b564736f6c634300081c0033",
  "linkReferences": {},
  "deployedLinkReferences": {}
}