{
  "_format": "hh-sol-artifact-1",
  "contractName": "VoteBlock",
  "sourceName": "contracts/VoteBlock.sol",
  "abi": [
    {
      "inputs": [],
      "stateMutability": "nonpayable",
      "type": "constructor"
    },
    {
      "anonymous": false,
      "inputs": [
        {
          "indexed": false,
          "internalType": "string",
          "name": "name",
          "type": "string"
        }
      ],
      "name": "CandidateAdded",
      "type": "event"
    },
    {
      "anonymous": false,
      "inputs": [
        {
          "indexed": false,
          "internalType": "string",
          "name": "encryptedVoterId",
          "type": "string"
        }
      ],
      "name": "EncryptedVoteRecorded",
      "type": "event"
    },
    {
      "anonymous": false,
      "inputs": [
        {
          "indexed": false,
          "internalType": "string",
          "name": "candidateName",
          "type": "string"
        }
      ],
      "name": "VoteCasted",
      "type": "event"
    },
    {
      "inputs": [
        {
          "internalType": "string",
          "name": "_name",
          "type": "string"
        }
      ],
      "name": "addCandidate",
      "outputs": [],
      "stateMutability": "nonpayable",
      "type": "function"
    },
    {
      "inputs": [
        {
          "internalType": "string[]",
          "name": "_nameList",
          "type": "string[]"
        }
      ],
      "name": "addCandidates",
      "outputs": [],
      "stateMutability": "nonpayable",
      "type": "function"
    },
    {
      "inputs": [],
      "name": "admin",
      "outputs": [
        {
          "internalType": "address",
          "name": "",
          "type": "address"
        }
      ],
      "stateMutability": "view",
      "type": "function"
    },
    {
      "inputs": [
        {
          "internalType": "string",
          "name": "",
          "type": "string"
        }
      ],
      "name": "candidateIndex",
      "outputs": [
        {
          "internalType": "uint256",
          "name": "",
          "type": "uint256"
        }
      ],
      "stateMutability": "view",
      "type": "function"
    },
    {
      "inputs": [
        {
          "internalType": "uint256",
          "name": "",
          "type": "uint256"
        }
      ],
      "name": "candidates",
      "outputs": [
        {
          "internalType": "string",
          "name": "name",
          "type": "string"
        },
        {
          "internalType": "uint256",
          "name": "voteCount",
          "type": "uint256"
        }
      ],
      "stateMutability": "view",
      "type": "function"
    },
    {
      "inputs": [
        {
          "internalType": "uint256",
          "name": "",
          "type": "uint256"
        }
      ],
      "name": "encryptedVotes",
      "outputs": [
        {
          "internalType": "string",
          "name": "encryptedVoterId",
          "type": "string"
        },
        {
          "internalType": "string",
          "name": "votedCandidate",
          "type": "string"
        }
      ],
      "stateMutability": "view",
      "type": "function"
    },
    {
      "inputs": [],
      "name": "getEncryptedVoteCount",
      "outputs": [
        {
          "internalType": "uint256",
          "name": "",
          "type": "uint256"
        }
      ],
      "stateMutability": "view",
      "type": "function"
    },
    {
      "inputs": [],
      "name": "getEncryptedVotes",
      "outputs": [
        {
          "components": [
            {
              "internalType": "string",
              "name": "encryptedVoterId",
              "type": "string"
            },
            {
              "internalType": "string",
              "name": "votedCandidate",
              "type": "string"
            }
          ],
          "internalType": "struct VoteBlock.EncryptedVote[]",
          "name": "",
          "type": "tuple[]"
        }
      ],
      "stateMutability": "view",
      "type": "function"
    },
    {
      "inputs": [],
      "name": "getResults",
      "outputs": [
        {
          "components": [
            {
              "internalType": "string",
              "name": "name",
              "type": "string"
            },
            {
              "internalType": "uint256",
              "name": "voteCount",
              "type": "uint256"
            }
          ],
          "internalType": "struct VoteBlock.Candidate[]",
          "name": "",
          "type": "tuple[]"
        }
      ],
      "stateMutability": "view",
      "type": "function"
    },
    {
      "inputs": [
        {
          "internalType": "string",
          "name": "_userId",
          "type": "string"
        }
      ],
      "name": "hasVoted",
      "outputs": [
        {
          "internalType": "bool",
          "name": "",
          "type": "bool"
        }
      ],
      "stateMutability": "view",
      "type": "function"
    },
    {
      "inputs": [
        {
          "internalType": "string",
          "name": "_userId",
          "type": "string"
        },
        {
          "internalType": "string",
          "name": "_candidateName",
          "type": "string"
        },
        {
          "internalType": "string",
          "name": "_encryptedVoterId",
          "type": "string"
        }
      ],
      "name": "vote",
      "outputs": [],
      "stateMutability": "nonpayable",
      "type": "function"
    },
    {
      "inputs": [
        {
          "internalType": "string",
          "name": "",
          "type": "string"
        }
      ],
      "name": "voters",
      "outputs": [
        {
          "internalType": "bool",
          "name": "hasVoted",
          "type": "bool"
        }
      ],
      "stateMutability": "view",
      "type": "function"
    }
  ],
  "bytecode": "0x6080604052348015600f57600080fd5b50336000806101000a81548173ffffffffffffffffffffffffffffffffffffffff021916908373ffffffffffffffffffffffffffffffffffffffff160217905550611ef28061005f6000396000f3fe608060405234801561001057600080fd5b50600436106100b45760003560e01c806395f59fe11161007157806395f59fe1146101a25780639a6efcc0146101be5780639df9ae0c146101dc578063a999e5621461020c578063f851a44014610228578063fde315bd14610246576100b4565b80633477ee2e146100b957806339bfeae3146100ea5780633d9e95491461011a578063462e91ec146101385780634717f97c1461015457806353fa2e6414610172575b600080fd5b6100d360048036038101906100ce9190610fdd565b610277565b6040516100e19291906110a9565b60405180910390f35b61010460048036038101906100ff919061120e565b610333565b6040516101119190611272565b60405180910390f35b61012261036b565b60405161012f919061128d565b60405180910390f35b610152600480360381019061014d919061120e565b610378565b005b61015c6105c5565b6040516101699190611400565b60405180910390f35b61018c6004803603810190610187919061120e565b6106c0565b6040516101999190611272565b60405180910390f35b6101bc60048036038101906101b79190611422565b610701565b005b6101c66109f3565b6040516101d391906115cf565b60405180910390f35b6101f660048036038101906101f1919061120e565b610b76565b604051610203919061128d565b60405180910390f35b610226600480360381019061022191906116d7565b610ba4565b005b610230610e2b565b60405161023d9190611761565b60405180910390f35b610260600480360381019061025b9190610fdd565b610e4f565b60405161026e92919061177c565b60405180910390f35b6003818154811061028757600080fd5b90600052602060002090600202016000915090508060000180546102aa906117e2565b80601f01602080910402602001604051908101604052809291908181526020018280546102d6906117e2565b80156103235780601f106102f857610100808354040283529160200191610323565b820191906000526020600020905b81548152906001019060200180831161030657829003601f168201915b5050505050908060010154905082565b6000600182604051610345919061184f565b908152602001604051809103902060000160009054906101000a900460ff169050919050565b6000600480549050905090565b60008054906101000a900473ffffffffffffffffffffffffffffffffffffffff1673ffffffffffffffffffffffffffffffffffffffff163373ffffffffffffffffffffffffffffffffffffffff1614610406576040517f08c379a00000000000000000000000000000000000000000000000000000000081526004016103fd906118d8565b60405180910390fd5b6000600282604051610418919061184f565b9081526020016040518091039020541480156104b55750600060038054905014806104b457508060405160200161044f919061184f565b60405160208183030381529060405280519060200120600360008154811061047a576104796118f8565b5b906000526020600020906002020160000160405160200161049b91906119bf565b6040516020818303038152906040528051906020012014155b5b6104f4576040517f08c379a00000000000000000000000000000000000000000000000000000000081526004016104eb90611a22565b60405180910390fd5b6003604051806040016040528083815260200160008152509080600181540180825580915050600190039060005260206000209060020201600090919091909150600082015181600001908161054a9190611bd9565b5060208201518160010155505060016003805490506105699190611cda565b600282604051610579919061184f565b9081526020016040518091039020819055507ff29562dad1599aea0ebb142466120aab326d5efa8f839df82a9c064bf78e8938816040516105ba9190611d0e565b60405180910390a150565b60606003805480602002602001604051908101604052809291908181526020016000905b828210156106b7578382906000526020600020906002020160405180604001604052908160008201805461061c906117e2565b80601f0160208091040260200160405190810160405280929190818152602001828054610648906117e2565b80156106955780601f1061066a57610100808354040283529160200191610695565b820191906000526020600020905b81548152906001019060200180831161067857829003601f168201915b50505050508152602001600182015481525050815260200190600101906105e9565b50505050905090565b6001818051602081018201805184825260208301602085012081835280955050505050506000915090508060000160009054906101000a900460ff16905081565b600183604051610711919061184f565b908152602001604051809103902060000160009054906101000a900460ff1615610770576040517f08c379a000000000000000000000000000000000000000000000000000000000815260040161076790611d7c565b60405180910390fd5b6000600380549050116107b8576040517f08c379a00000000000000000000000000000000000000000000000000000000081526004016107af90611de8565b60405180910390fd5b60006002836040516107ca919061184f565b90815260200160405180910390205490506003805490508110801561085e5750826040516020016107fb919061184f565b6040516020818303038152906040528051906020012060038281548110610825576108246118f8565b5b906000526020600020906002020160000160405160200161084691906119bf565b60405160208183030381529060405280519060200120145b61089d576040517f08c379a000000000000000000000000000000000000000000000000000000000815260040161089490611e54565b60405180910390fd5b600180856040516108ae919061184f565b908152602001604051809103902060000160006101000a81548160ff021916908315150217905550600381815481106108ea576108e96118f8565b5b9060005260206000209060020201600101600081548092919061090c90611e74565b91905055506004604051806040016040528084815260200185815250908060018154018082558091505060019003906000526020600020906002020160009091909190915060008201518160000190816109669190611bd9565b50602082015181600101908161097c9190611bd9565b5050507fcd63cc839e5f0f85c27f29e02b4e7d4e695820f9600a1cd819c990d39762e852836040516109ae9190611d0e565b60405180910390a17f8ddaca81077c8f7ba655bd533ea1990929d1dc912197d4fd6a7ce53fce863082826040516109e59190611d0e565b60405180910390a150505050565b60606004805480602002602001604051908101604052809291908181526020016000905b82821015610b6d5783829060005260206000209060020201604051806040016040529081600082018054610a4a906117e2565b80601f0160208091040260200160405190810160405280929190818152602001828054610a76906117e2565b8015610ac35780601f10610a9857610100808354040283529160200191610ac3565b820191906000526020600020905b815481529060010190602001808311610aa657829003601f168201915b50505050508152602001600182018054610adc906117e2565b80601f0160208091040260200160405190810160405280929190818152602001828054610b08906117e2565b8015610b555780601f10610b2a57610100808354040283529160200191610b55565b820191906000526020600020905b815481529060010190602001808311610b3857829003601f168201915b50505050508152505081526020019060010190610a17565b50505050905090565b6002818051602081018201805184825260208301602085012081835280955050505050506000915090505481565b60008054906101000a900473ffffffffffffffffffffffffffffffffffffffff1673ffffffffffffffffffffffffffffffffffffffff163373ffffffffffffffffffffffffffffffffffffffff1614610c32576040517f08c379a0000000000000000000000000000000000000000000000000000000008152600401610c29906118d8565b60405180910390fd5b60005b8151811015610e27576000828281518110610c5357610c526118f8565b5b602002602001015190506000600282604051610c6f919061184f565b908152602001604051809103902054148015610d0c575060006003805490501480610d0b575080604051602001610ca6919061184f565b604051602081830303815290604052805190602001206003600081548110610cd157610cd06118f8565b5b9060005260206000209060020201600001604051602001610cf291906119bf565b6040516020818303038152906040528051906020012014155b5b610d4b576040517f08c379a0000000000000000000000000000000000000000000000000000000008152600401610d4290611a22565b60405180910390fd5b60036040518060400160405280838152602001600081525090806001815401808255809150506001900390600052602060002090600202016000909190919091506000820151816000019081610da19190611bd9565b506020820151816001015550506001600380549050610dc09190611cda565b600282604051610dd0919061184f565b9081526020016040518091039020819055507ff29562dad1599aea0ebb142466120aab326d5efa8f839df82a9c064bf78e893881604051610e119190611d0e565b60405180910390a1508080600101915050610c35565b5050565b60008054906101000a900473ffffffffffffffffffffffffffffffffffffffff1681565b60048181548110610e5f57600080fd5b9060005260206000209060020201600091509050806000018054610e82906117e2565b80601f0160208091040260200160405190810160405280929190818152602001828054610eae906117e2565b8015610efb5780601f10610ed057610100808354040283529160200191610efb565b820191906000526020600020905b815481529060010190602001808311610ede57829003601f168201915b505050505090806001018054610f10906117e2565b80601f0160208091040260200160405190810160405280929190818152602001828054610f3c906117e2565b8015610f895780601f10610f5e57610100808354040283529160200191610f89565b820191906000526020600020905b815481529060010190602001808311610f6c57829003601f168201915b5050505050905082565b6000604051905090565b600080fd5b600080fd5b6000819050919050565b610fba81610fa7565b8114610fc557600080fd5b50565b600081359050610fd781610fb1565b92915050565b600060208284031215610ff357610ff2610f9d565b5b600061100184828501610fc8565b91505092915050565b600081519050919050565b600082825260208201905092915050565b60005b83811015611044578082015181840152602081019050611029565b60008484015250505050565b6000601f19601f8301169050919050565b600061106c8261100a565b6110768185611015565b9350611086818560208601611026565b61108f81611050565b840191505092915050565b6110a381610fa7565b82525050565b600060408201905081810360008301526110c38185611061565b90506110d2602083018461109a565b9392505050565b600080fd5b600080fd5b7f4e487b7100000000000000000000000000000000000000000000000000000000600052604160045260246000fd5b61111b82611050565b810181811067ffffffffffffffff8211171561113a576111396110e3565b5b80604052505050565b600061114d610f93565b90506111598282611112565b919050565b600067ffffffffffffffff821115611179576111786110e3565b5b61118282611050565b9050602081019050919050565b82818337600083830152505050565b60006111b16111ac8461115e565b611143565b9050828152602081018484840111156111cd576111cc6110de565b5b6111d884828561118f565b509392505050565b600082601f8301126111f5576111f46110d9565b5b813561120584826020860161119e565b91505092915050565b60006020828403121561122457611223610f9d565b5b600082013567ffffffffffffffff81111561124257611241610fa2565b5b61124e848285016111e0565b91505092915050565b60008115159050919050565b61126c81611257565b82525050565b60006020820190506112876000830184611263565b92915050565b60006020820190506112a2600083018461109a565b92915050565b600081519050919050565b600082825260208201905092915050565b6000819050602082019050919050565b600082825260208201905092915050565b60006112f08261100a565b6112fa81856112d4565b935061130a818560208601611026565b61131381611050565b840191505092915050565b61132781610fa7565b82525050565b6000604083016000830151848203600086015261134a82826112e5565b915050602083015161135f602086018261131e565b508091505092915050565b6000611376838361132d565b905092915050565b6000602082019050919050565b6000611396826112a8565b6113a081856112b3565b9350836020820285016113b2856112c4565b8060005b858110156113ee57848403895281516113cf858261136a565b94506113da8361137e565b925060208a019950506001810190506113b6565b50829750879550505050505092915050565b6000602082019050818103600083015261141a818461138b565b905092915050565b60008060006060848603121561143b5761143a610f9d565b5b600084013567ffffffffffffffff81111561145957611458610fa2565b5b611465868287016111e0565b935050602084013567ffffffffffffffff81111561148657611485610fa2565b5b611492868287016111e0565b925050604084013567ffffffffffffffff8111156114b3576114b2610fa2565b5b6114bf868287016111e0565b9150509250925092565b600081519050919050565b600082825260208201905092915050565b6000819050602082019050919050565b6000604083016000830151848203600086015261151282826112e5565b9150506020830151848203602086015261152c82826112e5565b9150508091505092915050565b600061154583836114f5565b905092915050565b6000602082019050919050565b6000611565826114c9565b61156f81856114d4565b935083602082028501611581856114e5565b8060005b858110156115bd578484038952815161159e8582611539565b94506115a98361154d565b925060208a01995050600181019050611585565b50829750879550505050505092915050565b600060208201905081810360008301526115e9818461155a565b905092915050565b600067ffffffffffffffff82111561160c5761160b6110e3565b5b602082029050602081019050919050565b600080fd5b6000611635611630846115f1565b611143565b905080838252602082019050602084028301858111156116585761165761161d565b5b835b8181101561169f57803567ffffffffffffffff81111561167d5761167c6110d9565b5b80860161168a89826111e0565b8552602085019450505060208101905061165a565b5050509392505050565b600082601f8301126116be576116bd6110d9565b5b81356116ce848260208601611622565b91505092915050565b6000602082840312156116ed576116ec610f9d565b5b600082013567ffffffffffffffff81111561170b5761170a610fa2565b5b611717848285016116a9565b91505092915050565b600073ffffffffffffffffffffffffffffffffffffffff82169050919050565b600061174b82611720565b9050919050565b61175b81611740565b82525050565b60006020820190506117766000830184611752565b92915050565b600060408201905081810360008301526117968185611061565b905081810360208301526117aa8184611061565b90509392505050565b7f4e487b7100000000000000000000000000000000000000000000000000000000600052602260045260246000fd5b600060028204905060018216806117fa57607f821691505b60208210810361180d5761180c6117b3565b5b50919050565b600081905092915050565b60006118298261100a565b6118338185611813565b9350611843818560208601611026565b80840191505092915050565b600061185b828461181e565b915081905092915050565b7f4f6e6c792061646d696e2063616e20706572666f726d2074686973206163746960008201527f6f6e000000000000000000000000000000000000000000000000000000000000602082015250565b60006118c2602283611015565b91506118cd82611866565b604082019050919050565b600060208201905081810360008301526118f1816118b5565b9050919050565b7f4e487b7100000000000000000000000000000000000000000000000000000000600052603260045260246000fd5b60008190508160005260206000209050919050565b60008154611949816117e2565b6119538186611813565b9450600182166000811461196e5760018114611983576119b6565b60ff19831686528115158202860193506119b6565b61198c85611927565b60005b838110156119ae5781548189015260018201915060208101905061198f565b838801955050505b50505092915050565b60006119cb828461193c565b915081905092915050565b7f43616e64696461746520616c7265616479206578697374730000000000000000600082015250565b6000611a0c601883611015565b9150611a17826119d6565b602082019050919050565b60006020820190508181036000830152611a3b816119ff565b9050919050565b60006020601f8301049050919050565b600082821b905092915050565b600060088302611a8f7fffffffffffffffffffffffffffffffffffffffffffffffffffffffffffffffff82611a52565b611a998683611a52565b95508019841693508086168417925050509392505050565b6000819050919050565b6000611ad6611ad1611acc84610fa7565b611ab1565b610fa7565b9050919050565b6000819050919050565b611af083611abb565b611b04611afc82611add565b848454611a5f565b825550505050565b600090565b611b19611b0c565b611b24818484611ae7565b505050565b5b81811015611b4857611b3d600082611b11565b600181019050611b2a565b5050565b601f821115611b8d57611b5e81611927565b611b6784611a42565b81016020851015611b76578190505b611b8a611b8285611a42565b830182611b29565b50505b505050565b600082821c905092915050565b6000611bb060001984600802611b92565b1980831691505092915050565b6000611bc98383611b9f565b9150826002028217905092915050565b611be28261100a565b67ffffffffffffffff811115611bfb57611bfa6110e3565b5b611c0582546117e2565b611c10828285611b4c565b600060209050601f831160018114611c435760008415611c31578287015190505b611c3b8582611bbd565b865550611ca3565b601f198416611c5186611927565b60005b82811015611c7957848901518255600182019150602085019450602081019050611c54565b86831015611c965784890151611c92601f891682611b9f565b8355505b6001600288020188555050505b505050505050565b7f4e487b7100000000000000000000000000000000000000000000000000000000600052601160045260246000fd5b6000611ce582610fa7565b9150611cf083610fa7565b9250828203905081811115611d0857611d07611cab565b5b92915050565b60006020820190508181036000830152611d288184611061565b905092915050565b7f596f75206861766520616c726561647920766f74656421000000000000000000600082015250565b6000611d66601783611015565b9150611d7182611d30565b602082019050919050565b60006020820190508181036000830152611d9581611d59565b9050919050565b7f4e6f2063616e6469646174657320617661696c61626c65000000000000000000600082015250565b6000611dd2601783611015565b9150611ddd82611d9c565b602082019050919050565b60006020820190508181036000830152611e0181611dc5565b9050919050565b7f43616e646964617465206e6f7420666f756e6400000000000000000000000000600082015250565b6000611e3e601383611015565b9150611e4982611e08565b602082019050919050565b60006020820190508181036000830152611e6d81611e31565b9050919050565b6000611e7f82610fa7565b91507fffffffffffffffffffffffffffffffffffffffffffffffffffffffffffffffff8203611eb157611eb0611cab565b5b60018201905091905056fea2646970667358221220cb40730b73b9e0d6bed40f8a12e86a5cbb18f3d3f45f4163480380b3f62d7fc864736f6c634300081c0033",
  "linkReferences": {},
  "deployedLinkReferences": {}
}